:020000040000FA
:1000000002EF00F0000E956E83989BEC00F0839A4F
:10001000030E836E8388C7EC00F08398BCEC00F07D
:10002000030E836E8388C7EC00F08398C7EC00F062
:10003000030E836E8388C7EC00F08398BCEC00F05D
:10004000020E836E8388C7EC00F08398BCEC00F04E
:10005000020E836E8388C7EC00F08398BCEC00F03E
:100060000E0E836E8388C7EC00F08398BCEC00F022
:10007000000E836E8388C7EC00F08398BCEC00F020
:10008000080E836E8388C7EC00F08398BCEC00F008
:10009000000E836E8388C7EC00F08398BCEC00F000
:1000A000010E836E8388C7EC00F08398BCEC00F0EF
:1000B000000E836E8388C7EC00F08398BCEC00F0E0
:1000C000060E836E8388C7EC00F08398BCEC00F0CA
:1000D000080E836E8388C7EC00F08398BCEC00F0B8
:1000E000000E836E8388C7EC00F08398BCEC00F0B0
:1000F000000E836E8388C7EC00F08398BCEC00F0A0
:100100000C0E836E8388C7EC00F08398BCEC00F083
:10011000838A240E836E8388C7EC00F08398BCEC3E
:1001200000F0290E836E8388C7EC00F08398BCEC46
:1001300000F099EF00F0FF0E006E280E016E002E09
:100140009FEF00F0012E9FEF00F01200FF0E006EF7
:10015000690E016E002EAAEF00F0012EAAEF00F04A
:100160001200FF0E006E0E0E016E002EB5EF00F0B5
:10017000012EB5EF00F01200FF0E006E0B0E016EA7
:10018000002EC0EF00F0012EC0EF00F01200430E71
:10019000006E002EC9EF00F012001B0E006E002E44
:0601A000CFEF00F0120099
:0201A600000057
:020000040030CA
:010001000CF2
:0100020018E5
:010003001EDE
:010005008179
:010006008178
:00000001FF
